:020000040800F2
:10000000305F0020AD020008BB310008B3310008AA
:10001000B73100080D2F00088F3F000800000000D6
:100020000000000000000000000000006D38000823
:10003000112F000800000000190300085D390008B6
:10004000C7020008C7020008C7020008C70200086C
:10005000C7020008C7020008C7020008C70200085C
:10006000C7020008C7020008C7020008C70200084C
:10007000C7020008C7020008C7020008C70200083C
:10008000C7020008C7020008C7020008C70200082C
:10009000C7020008C7020008C7020008C70200081C
:1000A000C7020008C7020008C7020008C70200080C
:1000B000C7020008C7020008C7020008C7020008FC
:1000C000C7020008C7020008C7020008C7020008EC
:1000D000C7020008C7020008C7020008C93C0008A0
:1000E000C7020008C7020008C7020008C7020008CC
:1000F000C7020008C7020008C7020008C7020008BC
:10010000C7020008C7020008C7020008C7020008AB
:10011000C7020008C7020008C7020008C70200089B
:10012000C7020008C7020008C7020008C70200088B
:10013000C7020008C7020008C7020008C70200087B
:10014000C7020008C7020008C7020008C70200086B
:10015000C7020008C7020008C7020008C70200085B
:10016000C7020008C7020008C7020008C70200084B
:10017000C7020008C7020008C7020008C70200083B
:10018000C7020008C702000800F002F800F07FF87C
:100190000AA090E8000C82448344AAF10107DA45E2
:1001A00001D100F074F8AFF2090EBAE80F0013F0B5
:1001B000010F18BFFB1A43F001031847F0BB000002
:1001C00010BC00000A444FF0000C10F8013B13F083
:1001D000070408BF10F8014B1D1108BF10F8015BA0
:1001E000641E05D010F8016B641E01F8016BF9D193
:1001F00013F0080F1EBF10F8014BAD1C0C1B09D1EA
:100200006D1E58BF01F801CBFAD505E014F8016B5B
:1002100001F8016B6D1EF9D59142D6D370470000ED
:100220000023002400250026103A28BF78C1FBD8FF
:10023000520728BF30C148BF0B60704767290AF0DA
:100240006E82642900F07482752900F07182782929
:1002500000F0AA82732901F0B080002070471FB51A
:100260000AF050FA9DE8030000F0D2FD01F062FCB4
:1002700004000020002109F03BFE401C60600020CB
:10028000002109F04BFEE0601FBD10B510BD01F06C
:100290003FFF1146FFF7E3FF05F0FEFC02F092F985
:1002A00003B4FFF7F2FF03BC02F0C2F9094880472C
:1002B00009480047FEE7FEE7FEE7FEE7FEE7FEE748
:1002C000FEE7FEE7FEE7FEE704480549054A064B60
:1002D00070470000253A000889010008303B0020E3
:1002E000305F0020305B0020305B00204FF00000CA
:1002F0002C4A1060EFF3148020F0040080F314887F
:1003000062B64FF080504FF0E021C1F8040DBFF30A
:100310004F8FBFF36F8FFEE72348244A4FF000034F
:10032000016891B10360EFF3098C2CE9F00F1EF026
:10033000100F01D12CED108A1D4C4CF804ED2568EE
:10034000C1F808C00DB18D61236072B61168B1B1FA
:10035000016062B64F68164C8D6907F101074F6066
:100360002560D1F808C05CF804EB1EF0100F01D135
:10037000BCEC108ABCE8F00F8CF30988704772B6A9
:100380001168016009B962B6F9E74FF000674FF0F4
:10039000E028C8F8047D62B6DCE77047B0EE400A9A
:1003A000704700009C0100207C010020800100209B
:1003B000D8010020026922F00702A2F144026FF086
:1003C000020313604FF0000353609360D360136126
:1003D00053619361D361136253629362D362136377
:1003E00053634FF0FF339363D1634FF08073136413
:1003F000826070472249086800F101000860214BC3
:100400001A683AB1A2F101021A601AB91E4B4FF0F4
:10041000010018601D490868026822B11C4B4FF0AA
:1004200001021A6008E000F104001A4B1A689042B9
:1004300001D1194B18680860134B1A6812B9144996
:100440000868C8B101B51249086808B104F006FD92
:100450000D4B1A6872B104F085FC1048016849B967
:100460000F4801680F4A13680F484FF080529942B5
:1004700000D00260BDE80140BFF34F8F704700001D
:10048000A8010020D8010020AC010020B801002004
:10049000BC010020B4010020B00100209C0100201C
:1004A0007C0100208001002004ED00E070B50646CC
:1004B00000F08EFC056806F10B0020F00704B44242
:1004C0009CBF002070BD2B466A68BAB11068A0427C
:1004D00010D304F1080188423CBF5068586007D32C
:1004E0005168101941601168091B0160586014605F
:1004F000101D70BD13465268002AE7D121462846D8
:1005000000F072FC0028DED170BD70B50446051FF6
:1005100000F05EFC0068002C14BF446870BD002C25
:1005200018BFAC423CBF20466468F8D301680A1883
:10053000AA4218BF456003D12A68054611440160EC
:1005400028684119A1421CBF6C6070BD6168696078
:1005500021680844286070BD70B50D460646041F2A
:1005600000F036FCD0F800C0C5B1E6B105F10B00D3
:1005700020F00703AB423CBF002070BD20689842CA
:1005800038BFDCF8042013D3C11A08292FD3E01890
:1005900040F8041B2360FFF7B8FF28E03046FFF760
:1005A000B4FF002070BD2846BDE87040FFF77EBF55
:1005B000002A18BFA2423CBF94465268F8D30119E2
:1005C000914216D111680844984212D3C11A0829E1
:1005D0003CBF2060506808D35168E0184160216832
:1005E00012681144C91A01602360CCF80400201D70
:1005F00070BD181FFFF75AFF050007D021680A1FBA
:10060000211D00F038FB201DFFF77FFF284670BD3D
:1006100010B5044600F0D4FB0068005DC00602D5AA
:1006200004F1200010BD204610BD00000FB41CB521
:10063000084B06AA7B4469460090059800F08BFEA3
:1006400004460020694600F099FE20461CBC5DF877
:1006500014FB0000450D00000FB47CB50C0009AA86
:10066000009001D02044401E084B7B446946019015
:10067000089800F070FE05461CB10020694600F0A5
:100680007DFE28467CBC5DF814FB0000190D0000BF
:1006900070B5044685690068C10601D5302600E0C2
:1006A0002026C00707D070BDD4E90121304690470D
:1006B000206A401C20626D1EF6D570BD70B50446E0
:1006C00085690078C00707D170BDD4E901212020D9
:1006D0009047206A401C20626D1EF6D570BD70B533
:1006E0000C460546012A05D02878800600D5EA691F
:1006F000002302E0012305E05B1C934202D2E05C90
:100700000028F9D1A869E618C01AA861286A184417
:1007100028622846FFF7BCFF04E0D5E9012114F860
:10072000010B9047B442F8D32846FFF7C7FF70BDCE
:100730002DE9F0410646002410687529314616A5BA
:1007400010D0AFF30080002802DA404213A507E082
:1007500031688A0701D512A502E0490704D511A521
:10076000012401E0AFF3008000210A2206F12407F2
:1007700009E0B0FBF2FCB0FBF2F302FB1C003030EE
:1007800078541846491C0028F3D123462A4630469F
:10079000BDE8F04100F072BB000000002D00000039
:1007A0002B0000002000000070B504460D462146D5
:1007B0001068AFF300802188090502D50F4A7A44FA
:1007C00002E00E4A7A440E32002104F1240305E0CF
:1007D00000F00F060009965D5E54491C0028F7D111
:1007E00020780023000704D5702D02D009B1022320
:1007F00011322046BDE8704000F040BB86A70000E3
:100800002DE9F05F894604464FF0000ADFF824B175
:10081000FB44C0F820A02046E168884700287DD02E
:10082000252806D0D4E901219047206A401C206287
:10083000F1E700255F462046E16888472028064604
:1008400007DB312E05D2B81910F8200C08B105438A
:10085000F1E7A80701D525F00405C4F81CA000277E
:10086000C4F818A02A2E09D0304603F085FE38B30C
:1008700004EB8708303EC8F8186019E059F8041BEB
:10088000204604EB87029161E1688847012F064604
:1008900018D1E069002820DA25F020051DE0D8F8FD
:1008A000180000EB800006EB40003038C8F8180054
:1008B0002046E1688847064603F05EFE0028EED138
:1008C000012F0AD02E2E08D12046E16888477F1CD0
:1008D0000646022F45F02005C4DBA069002803DA94
:1008E000404245F00105A061E80701D025F0100560
:1008F000A6B1A6F14100192802D8203645F40065BA
:100900004A463146204625604D46FFF797FC60B1C8
:10091000012807D0ED1D25F0070000E007E000F1F9
:10092000080978E705F1040975E730467AE7206A97
:10093000BDE8F09F5CA700000FB400B58DB010A912
:10094000099000910B904FF0FF300A9000200C901E
:10095000064878440690064878446A4607900F99FE
:1009600009A800F0B1FF0DB05DF814FB930F000073
:10097000AB0F000070B5064600F02EFA046805467D
:1009800030460A22002100F002F82C6070BD2DE9EB
:10099000F04791460F4680460446002614F8015B56
:1009A0002DB100F00DFA0068405DC007F6D12B2D87
:1009B00002D02D2D18D0641E4A463946204600F03C
:1009C000B3FF27B13968A14201D1C7F800804FF0C9
:1009D000020471050BD54042002803DD00F0FCF94C
:1009E0000460A007BDE8F08746F48066E4E70028CD
:1009F000F8DA00F0F1F904606FF00040F2E7401E11
:100A0000CAB210F8011F8A4202D00029F9D1002091
:100A1000704730B505460B462A4613F8014B12F8CD
:100A2000010B08B1A042F8D01CB1002802D06D1C07
:100A3000F1E7284630BD40EA0103024630B59B0786
:100A400010D14FF0013400E008C208C91D1B9D43BE
:100A500015EAC41FF8D013F0FF0102F8011B0DD0F6
:100A60001B0AF8E711F8013B002B02F8013B05D007
:100A700011F8013B002B02F8013BF3D130BD0022FD
:100A8000CBB210F8011B994200D1421E0029F8D1C7
:100A90001046704710B5431C02E010F8011B71B1FD
:100AA0008107FAD14FF0013202C88C1A8C4314EA44
:100AB000C211F9D0C01A0A0603D0C01E10BDC01A58
:100AC00010BD0A0401D0801E10BD0902FCD0401EDA
:100AD00010BD40EA010370B59B072ED14FF00136DF
:100AE000042A2AD308C810C99D1B9D43121F15EA6A
:100AF000C61517D0D8B2E1B2401A50EA056110D13C
:100B000098B2A1B2401A50EA05410AD123F07F40C1
:100B100024F07F41401A50EA052102D1180EA0EBC3
:100B2000146070BDA342DBD018BA21BA884201D943
:100B3000012070BD4FF0FF3070BD0AB9002070BDBC
:100B400010F8013B11F8014B63B1A3420AD1521EC8
:100B500008D010F8013B11F8014B1BB1A34201D1A1
:100B6000521EEDD1181B70BD032A40F2308010F0E8
:100B7000030C00F0158011F8013BBCF1020F624438
:100B800098BF11F801CB00F8013B38BF11F8013BC9
:100B9000A2F1040298BF00F801CB38BF00F8013B76
:100BA00011F0030300F06780083AC0F0088051F8A4
:100BB000043B083A51F804CBA0E80810F5E7121DF1
:100BC0005CBF51F8043B40F8043BAFF30080D20710
:100BD00024BF11F8013B11F801CB48BF11F8012BDC
:100BE00024BF00F8013B00F801CB48BF00F8012BFF
:100BF0007047431A28BF9A427FF6B6AF032A1044C3
:100C0000114440F2268010F0030F1EBF11F8013D81
:100C1000521E00F8013D10F0030F7FF4F6AF11F003
:100C2000030300F03687083AC0F00B8051F8043D0A
:100C3000083A51F804CD40F8043D40F804CDFFF7E0
:100C4000F3BF121D5CBF51F8043D40F8043DAFF303
:100C50000080D20724BF11F8013D11F801CD48BF33
:100C600011F8012C24BF00F8013D00F801CD48BF68
:100C700000F8012C704710B5203AC0F00B80B1E8A5
:100C80001850203AA0E81850B1E81850A0E81850C1
:100C9000BFF4F5AF5FEA027C24BFB1E81850A0E8CA
:100CA000185044BF18C918C0BDE810405FEA827CE4
:100CB00024BF51F8043B40F8043B08BF7047D207FB
:100CC00028BF31F8023B48BF11F8012B28BF20F89C
:100CD000023B48BF00F8012B704702F0FF0343EAD4
:100CE000032242EA024200F000BF4FF0000200B5CA
:100CF000134694469646203922BFA0E80C50A0E83F
:100D00000C50B1F12001BFF4F7AF090728BFA0E8EC
:100D10000C5048BF0CC05DF804EB890028BF40F8B8
:100D2000042B08BF704748BF20F8022B11F0804FFA
:100D300018BF00F8012B70474FF0013C50F8042B0E
:100D400051F8043B9A4221D1A2EB0C03934313EADE
:100D5000CC1317D150F8042B51F8043B9A4215D10B
:100D6000A2EB0C03934313EACC130BD150F8042BE2
:100D700051F8043B9A4209D1A2EB0C03934313EAC6
:100D8000CC13DBD04FF00000704700BFD01A01BA7F
:100D9000B1FA81F101F0180122FA01F0CB40C1F162
:100DA0002001DBB2C0B2C01A2CFA01F3D11A914370
:100DB00011EAC311E6D170477047704770470000D1
:100DC00010B500F0B7FE001D10BD00BF259100005A
:100DD00000487047D83A002000487047D03A0020B9
:100DE000704770477047704738B504460A46002080
:100DF0006946AFF30080002808BF38BD024600995D
:100E0000204600F09BFE012038BD012001F078B99A
:100E1000F8B5AFF30080054600200C46102000BF57
:100E20000646A819A0420DD9324669460020AFF304
:100E30000080070008BF01F063F90098A04218BFC6
:100E40000546C419FFF7C4FF05600746F01D20F0F2
:100E500007004619284600F00AF8B44208BFF8BD5A
:100E6000A21B31463868BDE8F84000F067BE00219B
:100E70000160C0E901107047102070472DE9F0476C
:100E80000D4699469246044600F1240801688806FA
:100E900004D5E06921F01001216000E00120A842A2
:100EA00001DD471B00E00027A1697A1902EB090068
:100EB000081AA0612078C00602D42046FFF7E8FB9C
:100EC000002608E0D4E901211AF806009047206ABC
:100ED000401C761C20624E45F4DB2078C0060AD503
:100EE0002046FFF7D5FB06E0D4E9012130209047EA
:100EF000206A401C2062381EA7F10107F4DC07E0DD
:100F0000D4E9012118F805009047206A401C2062AE
:100F1000281EA5F10105F3DC2046FFF7CFFB207862
:100F2000000602D50220BDE8F0870120FBE77047EC
:100F30002DE9FF4F0C461E464FF0FF378BB0D2E92C
:100F40000001DDF860800A908A46C1F30A5505B9B0
:100F50003D46002108464FF00000BAF1000F00F4B2
:100F6000400005DA00EB80004FF4400101EA500038
:100F70004FEA9059B9F1010F00DDB9460A9850EADD
:100F80004A000ED044F61050A5F2FF3545432F1409
:100F9000B8F1000F1ED07542291E1EDDC9F10002F6
:100FA0001CE0B8F1010F4FF0000001D0302103E048
:100FB000F24305E02154401CB042FBDB30460022E6
:100FC000002121540B99C1F80880C1E900200FB01D
:100FD000BDE8F08FBD1B6D1CDEE74A4600DA6942B2
:100FE00006A801F01BF806AB93E8070003AB83E803
:100FF000070050460A9901F054FB8DE80700A0F560
:1010000000501F3800900398002D0ADD42F21F01A6
:101010004A460844002303A90390684601F000FEF5
:1010200009E0A0F500504A461F38002303A90390A9
:10103000684601F01FFE8DE807000004000C03D095
:101040004FF0FF30410800E01046B8F1000F03D028
:101050000022009215461EE0751E05D400F088FDA2
:10106000303262556D1EF9D5B3460122084302D0D5
:1010700000227F1C04E02078302801D100227F1E4E
:10108000002A099784D01DE0112D07DA00F070FDC9
:10109000303262556D1C50EA0102F5D1084302D08E
:1010A0000098C8B10EE00021681E05E0235C625C78
:1010B00063542254401E491C8142F7DBAB46A81BF7
:1010C000401E0990002004F80B000B98099AC0F804
:1010D0000880C0E9002B7AE711264FF0000857E797
:1010E0002DE9F04F88460446D21D22F0070191B049
:1010F000D1E90001CDE90A0103F0C2F802460B98DC
:10110000C00F01D02D2007E02068810701D52B20DA
:1011100002E0202101EAC000032A099001D0072A39
:1011200005DB03464146204600F070FD0BE12078C8
:10113000800601D5E06900E00620B8F1650F814620
:1011400006D0B8F1660F18D0B8F1670F70D131E052
:101150000020B9F1110F009001DB112301E009F12A
:1011600001030AAA01A90CA8FFF7E2FEDDE90C7051
:10117000002609F10105834647E001204B46009017
:101180004FF000470AAA01A90CA8FFF7D1FEDDE93C
:101190000DB00C995D46002610B909F101000D183B
:1011A000B9EB050003D4C0F1FF3609F10105A5EB49
:1011B00009002BE0B9F1010F01DA4FF0010900201D
:1011C000B9F1110F0090484601DD112300E00346FC
:1011D0000AAA01A90CA8FFF7ABFEDDE90C704D4689
:1011E00000268346207800070AD4AB4500DA5D4626
:1011F00001A8012D04DD411911F8011C302907D087
:101200004F4502DA17F1040F04DA012082460FE09D
:101210006D1EEEE7002F02DCED1B3E4403E0781C60
:10122000A84200DD7D1CB81B00F1010A4FF0004709
:101230002078000703D4AA4501DB4FF0FF3A0021D4
:10124000B7F1004F0DF143088DF8431024D0022070
:101250002B23002F01DA7F422D230A21021EA0F149
:10126000010000DC5FB197FBF1FC97FBF1F201FBA1
:101270001C7C17460CF1300C08F801CDEEE7A8F104
:10128000010003702188090501D5452100E0652191
:10129000A0F1010800F8011C09980FA9A1EB0807AB
:1012A000FF1D00B10120411901EBEA70A16938442A
:1012B000081A401EA0612078C00602D42046FFF71D
:1012C000E7F9099828B1D4E901219047206A401C28
:1012D00020622078C00622D52046FFF7D9F91EE00B
:1012E000002E04DBB34502DD01A8805D00E0302064
:1012F000D4E901219047206A401C2062761CAAF1A3
:1013000001005FEA000A0AD100F014FCC06801681D
:10131000405CD4E901219047206A401C2062281ECD
:10132000A5F10105DCDC07E0D4E9012118F8010B87
:101330009047206A401C2062381EA7F10107F3DCA9
:101340002046FFF7BBF9032011B041E601694A1CB2
:1013500002610878704700B58FB0CDE901310021F6
:10136000059105497944CDE9031011466846FFF718
:1013700047FA0FB000BD0000E5FFFFFF0A6802F862
:10138000010B0A607047D1E900239A4202D2531C34
:101390000B601070704710B5436913B1AFF3008054
:1013A00001E0FFF79CF9012010BD127800F1240143
:1013B0000A7000224A700122EDE711684FF0FF32F7
:1013C000E9E700002DE9FF4F06468BB00878FF28BB
:1013D00006D0491C2D2805D000244FF0000908E054
:1013E00000200CE00124F8E709EB8903491C00EB1D
:1013F00043090878FF28F7D114B1C9F100008146EC
:10140000107800252C46AA4629462D2801D02B28E5
:1014100004D1521C2D2813D0002082468B46107810
:10142000FF280FD04FF0000C0A21521CA5FB0178B9
:1014300004FB018105FB0C11C5194BEB0104EEE720
:101440000120EAE7002108464FF00000BAF1000F42
:1014500002D000EB80004008C0F38157012F01DD6E
:101460004FF0FF370E9955EA040009EB01080BD045
:101470004FF0020918F5FA7F16DA4FEACA70002F0A
:10148000706008DD012007E04FEACA70C6E900B0CD
:101490000FB0BDE8F08F00203060FFF79DFCC0F872
:1014A00000901821084616E0B8F5FA7F18DD002FE5
:1014B00002DAF748784401E0F6487844D0E90010B1
:1014C000C6E9001040EACA707060FFF785FCC0F8FA
:1014D0000090142108460FB0BDE8F04F09F01CB988
:1014E000002108464FF00000B8F10001099002DA2F
:1014F000C7F1000200E03A4601DAC8F1000106A88F
:1015000000F08CFD06AB93E8070003AB83E807000F
:1015100044F23E005BEA04010090584604D144F2D4
:101520001E012C465D460091210C0904014306D1A1
:101530000099240444EA15442D041039009104F064
:101540007F41014306D10099240244EA15642D022B
:101550000839009104F07041014306D1009924013B
:1015600044EA15742D01091F009104F04041014324
:1015700006D10099A40044EA9574AD00891E00913B
:1015800004F00041084304D100986D196441401EE5
:1015900000904FF001033A466846B8F1000FCDE9DC
:1015A000014503A902DD01F07AFB01E001F04DFBEA
:1015B000BAF1000F04460D4601D084F0004400212A
:1015C00008464FF00000099940F2FF77484010F0BC
:1015D0000C0F07D124F00040284303D0C4F30A5075
:1015E000B84212D1FFF7F8FBC0F80090C4F30A50DC
:1015F000B8420AD1A8487844D0E90010C6E90010E2
:1016000004F000410843706042E7C6E900543FE738
:101610002DE9FF4F1F464FF0000A4FF0FF384546B7
:1016200091B0D7E90146CDF83CA000F083FAC0683C
:101630000168405C1090B96912986D1C8847396A3E
:10164000814688470028F6D1B9F1FF3F0AD0002E25
:1016500024F4D06411DDB9F12B0F08D0B9F12D0FAE
:101660000BD102E0404615B013E744F48064B96939
:1016700012986D1C8847761E8146600504A901D525
:101680002D2000E02B20002E01F1010B0DF1300880
:101690008DF810003FDDB9F1690F08D0B9F1490F9D
:1016A00005D0B9F16E0F02D0B9F14E0F1CD13B46F7
:1016B00001A8009580E85002DDE912126FF00200E7
:1016C00009F093F8C11CCED10EE0B96912986D1CD7
:1016D000884781461398761E44F4007405600F987D
:1016E000401C002E0F9016DDB9F1300FEDD0B9F18E
:1016F000780F02D0B9F1580F0DD10F9801280AD1F7
:101700003B46CDE90054DDE91212001F029609F0B4
:101710006AF8C11CA7D1109989453ED144F08004D4
:1017200006E01399681CAAF1010A44F400740860E9
:10173000B9696D1C1298761E884730288146F0D012
:101740002BE01099894505D1200603D4761E44F07C
:10175000800418E0484602F00FFF08B3761E0DF132
:1017600023018B4544F4007408D2A9F130000BF832
:10177000010B200607D5AAF1010003E0200602D4E0
:101780000AF101008246A00502D51399681C086081
:10179000B96912986D1C88478146002ED1DC53E050
:1017A000002E51DDB9F1650F02D0B9F1450F4BD1D3
:1017B000A00549D5B9696D1C1298761E24F44074B1
:1017C0008847002E81460CDD2B2804D0B9F12D0F5F
:1017D00007D144F48074B96912986D1C8847761E4D
:1017E0008146E00501D52D2100E02B2108F8011BE1
:1017F000CDF8008021E0761E0DF13901884544F4D2
:1018000000740CD2A9F1300010F0FF0088F800003D
:1018100002D10099884509D908F1010806E0E005E0
:1018200001D51E4801E042F20F708246B969129854
:101830006D1C8847814613980560002E04DD4846DC
:1018400002F09AFE0028D6D1F96912988847FF2045
:1018500053468BF8000088F8000000200A900B9097
:1018600004AA0CA90AA8FFF7ADFDA00502D46FF0E9
:101870000100F8E614F0240F12D0E0071CD13868FC
:10188000DDE90A12031D3B600068C0E9001213E0A5
:101890001CA900000EA90000D2A70000F1D8FFFF8C
:1018A0000AA9684602F04CFEE00705D13868009AA4
:1018B000011D3960006802602846D4E602681144C0
:1018C0001378016018467047D16005497944516129
:1018D00004497944116200211161114600F0E4B914
:1018E000EDFFFFFF25030000426842B1016811F8D7
:1018F000013B23B1521EC0E9001218467047012176
:10190000C160881E704742685AB1C368016843B914
:1019100083688B4205D0491E521CC0E9001200208A
:1019200070474FF0FF3070472DE9F05F8246154653
:101930008B4600270AF10104B9460078302801D00F
:101940009DB113E014F8010B0127782803D0582823
:1019500001D045B10AE00DB1102D07D1002714F8D0
:10196000010B102502E0082500E00A250026B046FC
:101970000EE005FB080005FB06F101271FFA80F8C1
:1019800001EB1046B6F5803F00D3B94614F8010BC1
:10199000294600F07BF90028EBDABBF1000F05D0F7
:1019A0000FB1641E00E05446CBF80040B9F1000FBF
:1019B00006D0FFF711FA02210160C81EBDE8F09FB2
:1019C00048EA0640FAE700000FB4002300B589B0EA
:1019D0000CA900910B99CB60214B7B440693214BC2
:1019E0007B44079304236FF00042CDE901321E4A85
:1019F0007A446B4608920246002008F0F2FE09B0D5
:101A00005DF814FB70B506464FF0FF3015460C46E6
:101A1000324686B00091CDE901016946002004906C
:101A200004A8FFF7D1FF02460498211825B108B198
:101A3000084600E020462860049800280DD0002ABF
:101A400002DD0098884208D03246081B694600949F
:101A5000CDE9010404A8FFF7B7FF06B070BD000090
:101A60000BFFFFFF23FFFFFF07020000431A28BF01
:101A70009A427FF600A9104410F0030F11441EBFD4
:101A800011F8013D521E00F8013D10F0030F7FF4E4
:101A9000F6AF103AC0F00A8010B531E91850103A8C
:101AA00020E91850BFF4F9AFBDE81040530724BF38
:101AB00031E9081020E9081044BF51F8043D40F80E
:101AC000043D12F0030F08BF7047D20728BF31F85A
:101AD000023D48BF11F8012C28BF20F8023D48BF45
:101AE00000F8012C70474FF000020429C0F012806A
:101AF00010F0030C3FF4FBA8CCF1040CBCF1020F76
:101B000018BF00F8012BA8BF20F8022BA1EB0C0195
:101B1000FFF7EDB85FEAC17C24BF00F8012B00F8A5
:101B2000012B48BF00F8012B7047000000487047A8
:101B3000D03A002000487047F03A00200346406841
:101B40008C46002818BF88423CBF03464068F8D343
:101B500018681844884207D00CF1030020F00700F1
:101B6000001D411A521A0146081D0A60FEF7CDBC3D
:101B700030B5B0F10A024FEA900E71F100034EEA5F
:101B8000817EB0EB0E0061EB91014FEA101E4EEA30
:101B9000017E10EB0E0041EB11114FEA102E4EEAC0
:101BA000016E10EB0E0041EB11214FEA104E4EEA90
:101BB000014E10EB0E0041EB1141401841F10001C4
:101BC0004FEAD00040EA41704FEAD10110EB8005A6
:101BD0004FEA810444EA907444EB01046D1944EB2C
:101BE0000404521BA3414FF0000348BF0A3200D542
:101BF00030BD401C41F1000130BD10B50446FFF777
:101C0000DFF80068005D00F0010010BD2DE9F04133
:101C10001F46044603260168072A01F4006004DB1E
:101C200008B116A505E016A503E008B115A500E06A
:101C300015A521F010002060A069C01EA0610FB1A1
:101C4000401EA0612046FEF723FD4FB1D4E90121DB
:101C500038469047206A401C2062C01C206206E083
:101C6000206AFAE7D4E9012115F8010B9047761EA6
:101C7000F8D22046FEF722FDBDE8F0814E414E002D
:101C80006E616E00494E4600696E66003A2800D2C9
:101C9000303820F02002412A01D3A2F137008842D7
:101CA00001D34FF0FF3070472DE9F34F4FF0000A9A
:101CB0000C4656468DB001200C9001F10C000B90A3
:101CC00062690B9801219047051E2DD0252D2CD03F
:101CD000216A8847C0B162690B9801219047216A47
:101CE00088470028F7D16269411E0B98904700E0B1
:101CF000761CA1690D988847216A88470028F7D18A
:101D0000E1690D988847DBE7A1690D988847A842EB
:101D1000074601D1761CD3E7E1690D9888477F1CFF
:101D200002D1BAF1000F6FD06CE162690B98002705
:101D30003D46394690472A2804D162690B98012113
:101D400090470125DFF8D08262690B980121904706
:101D5000A0F130010A290AD24745E5DC07EB8701EB
:101D600000EB4107303FDFD445F01005ECE7E90612
:101D700001D46FF000476C280AD04C2814D0682892
:101D800015D06A280DD074281CD07A281AD01DE0EE
:101D900062690B98012190476C2802D045F0040538
:101DA00014E045F002050DE045F020050AE0626907
:101DB0000B9801219047682802D045F0080505E0FE
:101DC00045F4006562690B9801219047C4E9015709
:101DD00065283DD019DC58287AD00CDC452837D04E
:101DE00004DC252826D041289ED131E046282FD07A
:101DF000472899D12CE05B2877D0612828D0632828
:101E00007CD0642823D15AE0F7E06F2848D008DC62
:101E100066281DD067281BD0692821D06E2816D1CE
:101E200027E0702845D0732868D0752847D07828D7
:101E30000DD14DE0A1690D988847252805463FF44E
:101E400069AFE1690D9888476D1C3FF46AAFD9E02E
:101E50000D9923466A466FF0010008F0C2FCC6E007
:101E600045F0400023464FF000026060A80736D4DA
:101E70003EE0E8077FF447AF2068011D216000685D
:101E8000290501D506701BE7290701D5068017E74C
:101E9000A90703D5F117C0E9006111E706600FE754
:101EA00045F0400023464FF008026060A80716D4B2
:101EB0001EE040F60E0125EA0100606016E045F0E4
:101EC000400023464FF00A026060A80707D40FE0E5
:101ED00045F040006060A80708D5234610220D9900
:101EE0006FF00100AFF3008081E007E0102223468D
:101EF0000D996FF00100AFF3008078E04FF000091A
:101F000063284F46C8464B46CB4602D05B2807D0D5
:101F100039E02079C00601D40120A060012732E019
:101F20006269D4F80CB00B98012190475E2807D164
:101F30004FF0010949466269D4F80CB00B989047FC
:101F4000216939B900210A4603AB43F82120491C15
:101F50000829FADBD8B3216949B308F1010862699D
:101F60000B98012190475D28F4D1B9F1000F09D0F9
:101F7000002003A951F82020D24341F82020401C22
:101F80000828F7DB03AB2069002820794FEA40706E
:101F90001ED05B462246CDF80080CDE901970D9911
:101FA00000286FF0010020DAAFF300801FE0C117B6
:101FB00003AA00EBD1614B1121F01F0102EB830258
:101FC000411A13680120884003431360C7E719E0F2
:101FD0000D99224600286FF00100009702DAAFF356
:101FE000008004E0AFF3008001E0AFF30080002840
:101FF0000ADA401C06D10C9820B14FF0FF300FB028
:10200000BDE8F08F5046FAE7E90701D10AF1010A6D
:10201000064400200C9053E6CCCCCC0C2DE9F047C4
:10202000814616468AB0354878440DC88DE80D00C3
:1020300032487844801C03AC0DC884E80D0041F69A
:102040009B300844372190FBF1F290FBF1F5A5F1AC
:10205000800501FB12041B3C02D56442012000E014
:102060000020DFF898A080460027FA44AAF1BE0AB3
:102070000EE0E0070AD03246684607EB470101232D
:102080000AEB810100F0F6FD8DE8070064107F1C6B
:10209000002CEED1194F7F44AE3F19E0E80715D070
:1020A00007EB04100DF1180A90E80E008AE80E0004
:1020B000C068F04201D1981908903246012306A960
:1020C00003A800F0D7FD03AB83E807006D10641C84
:1020D000002DE3D14FF0010332466946B8F1000FFD
:1020E00003A802D000F09CFD01E000F0C3FDC9E9A7
:1020F0000001C9F808200AB0BDE8F087D48F0000BD
:1021000010B500F06DFABDE8104000F064BA7047F9
:102110007546FFF70BFDAE4605006946534620F0B5
:102120000700854618B020B5FEF7CEF8BDE8204080
:102130004FF000064FF000074FF000084FF0000B83
:1021400021F00701AC46ACE8C009ACE8C009ACE836
:10215000C009ACE8C0098D46704710B5FEF73CFEDB
:10216000006810BD10B50446FEF736FE046010BDD1
:102170002DE9FF4F1F464FF03C0987B04FF000425A
:10218000DDE9141001F10108DDF858A002EA405021
:102190000390002005908346054604460490B969E3
:1021A000461E08988847AAF1010A0290BAF1000F6A
:1021B0003BDD02982E2815D01021FFF767FD00287F
:1021C0002EDB4FF0010B0599014317D0B9F1000F39
:1021D0000BDB4A46C11700F031FA05430C43A9F165
:1021E000040905E0012004900BE008B145F0010569
:1021F00001200590049820B9361D02E0049800B132
:10220000361FB969089808F101088847BBF1000F2B
:10221000AAF1010A0290C9D00999C1F80080C5E766
:102220000298702808D0502806D0F9690898884785
:10223000BBF1000F14D04FE0002002900120BBF151
:10224000000F049009D0B969089808F1010888477F
:10225000AAF10109B9F1000F07DCF969089888476C
:102260006FF001000BB0BDE8F08F2B2804D02D28B3
:102270000CD14FF0FF300490B969089808F10108BB
:102280008847A9F10109B9F1000FE6DD411CE4D04E
:102290000A21FFF7FBFC0028DFDB029908F10108A7
:1022A00001EB810100EB41000290B9690898884771
:1022B0000A21FFF7EBFC099AA9F10109B9F1000F16
:1022C000C2F8008001DD0028E7DAF969089888473C
:1022D0000499029800FB016655EA040004D004F05A
:1022E0004041090002D006E0039898E0A40044EAC7
:1022F0009574AD00B61E04F00041080002D16D19BE
:102300006441761E159810F0240F03D04FF00B098E
:102310005C4803E04FF028096FF07D008246564587
:1023200007DAAAEB06018944B9F1410F01DD4FF04C
:10233000410901200021A9F1010200F07FF90246C4
:1023400028400B462140084301D0012100E0002134
:10235000501E029143F1FF3128402140084301D033
:10236000012000E000200299834651EA0B014FD082
:10237000002108464FF00000039900F4400039B1F5
:1023800000EB80004FF4400100EBD07001EA6000E8
:102390008015012802DD4FF0FF3000E013D0401C13
:1023A00036D0029860B3BBF1000F0CD14A46012031
:1023B000002100F043F928402140084301D00120CA
:1023C00000E00020E0B101204A46002100F036F98B
:1023D000034640190A4661412D1A8C4111D3B9F1C7
:1023E000400F09DD159810F0240F02D0AAF1340631
:1023F00003E0AAF1170600E0761C00254FF0004428
:1024000006E05B1E42F1FF3220EA030521EA0204E6
:10241000CAF10100B04206DA1B4903980843019053
:10242000002000900EE0039AC4F3D321E80A0A4387
:10243000164940EA44500A433146CDE90002684655
:1024400002F090F8159810F0240F0BD01598C007E3
:1024500015D13868DDE90012031D3B600068C0E952
:1024600000120CE002A8694602F06AF81598C0074D
:1024700005D13868029A011D396000680260404643
:10248000F0E6000002FCFFFF0000F07F0000F03FDC
:102490002DE9FF4F92461D4685B04FF00041DDE922
:1024A000124BDDE914727F1E01EA4B50414940F0A6
:1024B000FF4940EA0108002122F020004928049148
:1024C00002D04E2828D04CE03BA0012607C88DE85A
:1024D0000700A9690698641C88477F1E014606D438
:1024E0001DF8060018B121F0200181420BD0E969E6
:1024F00006988847032E34D0082E32D06FF00100A2
:1025000009B0BDE8F08F761C032E01D0082EE0D173
:10251000601CCAF80000DCE7A9690698641C8847BB
:102520007F1E2AD420F02000412826D1A9690698D0
:10253000641C88477F1E20D420F020004E281CD128
:10254000A9690698641C88477F1E48F4002849F44E
:102550008009CAF8004001D4282806D0E969069805
:1025600088475FEACB7012D022E0A9690698641C04
:1025700088477F1E01D4002803DAE9690698884756
:10258000BCE72928F1D1641CCAF80040E9E71BF038
:10259000240F07D028680499031D2B600068C0E948
:1025A000001805E02868021D2A600068C0F8009045
:1025B0002046A5E70000F07F494E46494E49545950
:1025C0000000000010B50446AFF300802046BDE8CF
:1025D0001040FDF765BE002801D000F029B8704713
:1025E00010B5012805D0002103A000F03AF8012021
:1025F00010BD09A1F8E7000053494752544D454D1D
:102600003A204F7574206F662068656170206D6593
:102610006D6F7279000000003A2048656170206D8E
:10262000656D6F727920636F727275707465640086
:1026300001491820ABBEFEE726000200B2F12003DC
:102640000AD5C2F1200301FA02F120FA03F300FADD
:1026500002F041EA0301704700FA03F14FF0000075
:10266000704770B505460C460A2000E06D1C00F06E
:1026700011F835B128780028F8D102E0641C00F088
:1026800009F814B120780028F8D1BDE870400A207C
:10269000AFF3008008B569468DF800000320ABBE9B
:1026A00008BD5FEA400C08BF91F0000F4FEA8C2391
:1026B0004FEAC12243EA51514FEA1C5018BF00F5BE
:1026C000F0404FEA300018BF41F000415FEA6C5C17
:1026D00000F02980BCF1FF3F08BF40F08040704708
:1026E000130C06BF12044FF0100C4FF0000C130E29
:1026F00004BF12020CF1080C130F04BF12010CF1FD
:10270000040C930F04BF92000CF1020CD30F04BF12
:1027100052000CF1010C11464FF00002A0F11F0015
:10272000A0EB0C00704711F0004F08BF704731F06C
:1027300000413FF4D5AF0B0C06BF09044FF0100C5D
:102740004FF0000C0B0E04BF09020CF1080C0B0F2C
:1027500004BF09010CF1040C8B0F04BF89000CF1BC
:10276000020CCB0F04BF49000CF1010CCCF120038B
:10277000A0EB0C0022FA03F302FA0CF241EA030187
:1027800000F10100704720F07F4C80EA030023F045
:102790007F47ACEB070303F57C5300F0004003F1E7
:1027A000FF032DE980494FEA154B09B44FEA144362
:1027B00025EA0B4E24EA03480FF2042606EB132702
:1027C00049083E785FEA320203FB0667C7F5000757
:1027D00007FB06F64FEA54374FEAD64606F10206E3
:1027E00007FB066CCCF1005C4FEA1C472CEA074C57
:1027F00007FB06F40CFB06F504EB15464FEA9616AC
:1028000034BF00204FF000404FEAD13706FB07FCF1
:102810004FEA1C4C0CFB0BF7D21B03FB0CF761EBD4
:1028200007010CFB0EF7B0EB074072EB17420CFBF5
:1028300008F734BFA2EB0742B2EB074261EB174146
:102840004FEA0C444FEA910706FB07FC4FEA1C4C89
:102850000CFB0BF7B0EBC74072EB573203FB0CF7E6
:1028600034BFA2EBC742B2EBC74261EB57310CFB5E
:102870000EF7B0EBC70072EB57720CFB08F734BFD2
:10288000A2EBC702B2EBC70261EB5771039F4FEA9D
:10289000816141EA921104EBCC044FEAD1374FEA4F
:1028A000826206FB07FC42EA90124FEA80604FEA20
:1028B0001C4C0CFB0BF7D21B03FB0CF761EB070165
:1028C0000CFB0EF7B0EB074072EB17420CFB08F75E
:1028D00034BFA2EB0742B2EB074261EB17414FEA6C
:1028E0008C554FEA910704EB9C2406FB07FC4FEA4A
:1028F0001C4C0CFB0BF7B0EBC74072EB573203FBE1
:102900000CF734BFA2EBC742B2EBC74261EB5731C1
:102910000CFB0EF7B0EBC70072EB57720CFB08F71D
:1029200034BFA2EBC702B2EBC70261EB577115EBE4
:102930004C254FEA816141EA92114FEA82624FEAE7
:10294000D13742EA901206FB07FC44F100044FEA3B
:1029500080604FEA1C4C0CFB0BF7D21B03FB0CF7FF
:1029600061EB07010CFB0EF7B0EB074072EB17426F
:102970000CFB08F734BFA2EB0742B2EB074261EB56
:10298000174115EB1C154FEA813141EA92414FEA9C
:10299000823242EA90424FEA80304FEA0C7644F1AC
:1029A000000448EA03434EEA0B484FF0000EB2EB36
:1029B000080C71EB030724BF624639464EEB0E0E3E
:1029C0004FF0000B0018524149414BEB0B0BB2EB9F
:1029D000080C71EB03077BF1000B24BF62463946FC
:1029E0004EEB0E0E4FF0000B0018524149414BEBDD
:1029F0000B0BB2EB080C71EB03077BF1000B24BF50
:102A0000624639464EEB0E0E51EA020718BF46F0F9
:102A1000010616EB0E7655F1000254F1000103D5C4
:102A2000BDE88901BDE80088BDE88901BDE800482E
:102A3000B619524141EB0101A3F1010370478080B7
:102A40007F7E7D7C7B7A7978777676757473727108
:102A500071706F6E6E6D6C6C6B6A6A6968686766C0
:102A600066656464636362616160605F5F5E5E5D52
:102A70005D5C5C5B5B5A5A595958585757565655C6
:102A800055555454535352525251515050504F4F28
:102A90004F4E4E4D4D4D4C4C4C4B4B4B4A4A4A4978
:102AA00049494848484747474746464645454544BB
:102AB0004444444343434342424242414141000073
:102AC00046EA0646A3F570534FEA164646EA4256D2
:102AD0004FEAD22242EA415210B54FEAD121A3F186
:102AE000010300F02FF820F0004000F1020C00F08C
:102AF000004701EB00501146BCF5006F40EA0700AB
:102B000000D210BDBAF1000F0AD01CB503B44FF0CB
:102B100004004FF004014FF000000FBCBDE810406E
:102B20004FF00001BBF1010FB9BF04484FF0FF3176
:102B30000348002140EA070010BD00BFFFFFEF7F00
:102B40000000F07F002B9C4630D477002BD01CB5C2
:102B50004FEA370703B44FF010004FF01001BAF1FD
:102B6000000F06D0BCF1000FDCBF40F0080040F0C1
:102B700008014FF000000FBCBDE810400BF1010B45
:102B8000BBF1010F08BF5FEA170722BF12F1010274
:102B900011F101014FF0004143F1000300F000404A
:102BA00043EA00007047F9D35708D0E746EA0646E3
:102BB00013F1400F4FEA16461FDD13F1200FDFBF60
:102BC00016430A46002120335B42BED0C3F12007E2
:102BD00046EA064602FA07F74FEA164646EA0706AD
:102BE000C3F1200722FA03F201FA07F721FA03F1F1
:102BF0004FF0000342EA0702A7E746EA020646EA68
:102C000006464FEA164646EA0106BCBF46EA0646B5
:102C1000360C4FF000034FF000024FF0000194E734
:102C20002DE9804C9A46934670B491E8380007C865
:102C300031EA400C48BF34EA430C03D5FFF7A3FD4B
:102C4000FFF780FFF0BCBDE8008C2DE9804C9A4670
:102C5000934670B491E8380007C831EA400C48BF89
:102C600034EA430C03D5FFF78EFDFFF729FFF0BCD4
:102C7000BDE8008C2DE9804C9A46934670B491E8EB
:102C8000380007C810F0804F08BF13F0804F03D101
:102C900000F01AF8FFF756FFF0BCBDE8008C2DE9F4
:102CA000804C9A46934670B491E8380007C810F0FB
:102CB000804F08BF13F0804F03D100F005F8FFF7F5
:102CC000FFFEF0BCBDE8008C20F07F4780EA0300E7
:102CD00023F07F4C07EB0C03A3F57C5300F000407E
:102CE000A3F1FE0392F0000F00F0B38095F0000F07
:102CF00000F077802DE901494FEA11404FEA144670
:102D000021EA004800FB06FC24EA064708FB06F619
:102D100007FB08F800FB07F718EB06484CEB164CCE
:102D20004FEA124B18EB07484FEA15464CEB174099
:102D300022EA0B4E0BFB06FC25EA06470EFB06F6C5
:102D400007FB0EFE0BFB07F71EEB064E4CEB164C7B
:102D50004FF000061EEB074E4CEB174B18EB0B0821
:102D600040F1000018EB0E0B58EB000840F100009A
:102D70008F1A4FF000013CBFC943661B14BFB5EB6F
:102D8000040C00213CBFC943F61B4FEA17444EEA2E
:102D90008E0E27EA04454FEA1C4704FB07622CEA23
:102DA000074C05FB07F70CFB05F604FB0CFC16EBC8
:102DB000074642EB174216EB0C4642EB1C421BEB5C
:102DC000060658EB0202414146EA9E0601D5BDE8DF
:102DD0000189B619524141EB0101A3F10103BDE89C
:102DE00001894FEA14454FEA114724EA054621EAD2
:102DF000074C05FB07F406FB07F70CFB06F105FB88
:102E00000CFC11EB074144EB17444FEA124711EB5E
:102E10000C4144EB1C4422EA074C05FB07F206FB7D
:102E200007F70CFB06F605FB0CFC16EB074642EB1E
:102E3000174216EB0C4642EB1C456A1854F1000190
:102E400048BF7047B619524141EB0101A3F101039C
:102E5000704795F0000F37D04FEA11424FEA144700
:102E600021EA024624EA074C02FB07F106FB07F7BA
:102E70000CFB06F402FB0CFC14EB074441EB17417E
:102E80004FEA154714EB0C4441EB1C4125EA074C73
:102E900002FB07F506FB07F70CFB06F602FB0CFC32
:102EA00016EB074645EB174516EB0C4645EB1C4267
:102EB000121951F1000148BF7047B619524141EB58
:102EC0000101A3F1010370474FEA14454FEA11478E
:102ED00024EA054621EA074C05FB07F106FB07F744
:102EE0000CFB06F24FF0000605FB0CFC12EB074250
:102EF00041EB174112EB0C4251EB1C4148BF7047AC
:102F0000921841EB0101A3F10103704700BFFEE7F6
:102F10007047000001490860704700000C3C024007
:102F200070B504460A460026092502B909E0012ABF
:102F300001D1160205E0022A01D1160201E04FF488
:102F4000407600F09FF80546092D28D11548006805
:102F500020F4407013490860084600683043086058
:102F60000846006820F0F80008600846006844F051
:102F7000020108430B4908600846006840F48030AD
:102F8000086000F07FF805460648006820F002005F
:102F9000044908600846006820F0F80008602846E8
:102FA00070BD0000103C024009201349096801F47B
:102FB0008031B1F5803F01D101201CE00E49096844
:102FC00001F0100109B1062015E00B49096801F470
:102FD000807109B102200EE00749096801F0EF0194
:102FE00009B1072007E00449096801F0020109B1AD
:102FF000082000E0092070470C3C024003480068AC
:1030000040F000400149086070470000103C024059
:1030100030B502460C46092500F034F80546092D66
:1030200019D10E48006820F440700C490860084629
:10303000006840F4007008600846006840F0010035
:103040000860146000F01EF805460448006820F08F
:10305000010002490860284630BD0000103C0240D3
:103060000548006800F0004028B1044802490C39C6
:103070000860034808607047103C02402301674520
:10308000AB89EFCD08B509200090FFF78DFF0090C8
:1030900002E0FFF789FF00909DF800000128F8D0BA
:1030A0009DF8000008BDF0B50A4600210023002469
:1030B00000BF3DE0012505FA01F3156805EA0304A8
:1030C0009C4234D105684F000326BE40B5430560DD
:1030D00015794E00B5400668354305601579012D18
:1030E00002D01579022D16D185684F000326BE4007
:1030F000B543856055794E00B54086683543856097
:10310000456801268E40B5434560456896798E40F6
:10311000B6B235434560C5684F000326BE40B5438F
:10312000C560D5794E00B540C6683543C560491CB9
:103130001029BFD3F0BDF0B5002300244D07ED0EDC
:1031400002FA05F3CE1000F1200555F826504E077F
:10315000F70E0F26BE40B543CF1000F1200646F80B
:103160002750CE1000F1200555F8265045EA0304FB
:10317000CE1000F1200545F82640F0BD02460020A3
:1031800013690B400BB1012000E000207047418320
:103190007047018370474FF6FF7101600021017194
:1031A00041718171C17170470AB1018300E04183AF
:1031B000704700BFFEE700BFFEE7704770B5002113
:1031C00000230F22C4781CB3174C246804F4E06475
:1031D000C4F5E064C4F30721C1F10404E3B20A4179
:1031E00044789C40E1B28478144021430C07210EBE
:1031F0000E4C05786155047804F01F050124AC409D
:1032000005786D11AD0005F1E025C5F8004109E034
:10321000047804F01F050124AC40054D06787611B2
:1032200045F8264070BD00000CED00E000E400E031
:1032300080E100E010B5002807DA0A07140E054AFD
:1032400000F00F031B1FD45403E00A07130E024AB9
:10325000135410BD18ED00E000E400E070B5002448
:103260000EE00021204600F050F9002504E0002087
:1032700000F0DCF9681CC5B2802DF8DB601CC4B21C
:10328000082CEEDB70BD08B50020009002E000982D
:10329000401C009000986428F9D308BD1CB501219A
:1032A000084600F02FFA01208DF804008DF8060082
:1032B0008DF8070002208DF8050020200090694657
:1032C0000D48FFF7F0FE4020009069460A48FFF7DE
:1032D000EAFE00BF012220210748FFF765FFFFF744
:1032E000D2FF00BF00BF012240210348FFF75CFF6F
:1032F000FFF7C9FF00BF1CBD0000024070B50546C6
:10330000002429E000BF80202041284008B101208E
:1033100000E00020024640211F48FFF745FFFFF76D
:10332000B2FF00BFFFF7AFFF00BF012220211A4804
:10333000FFF73AFFFFF7A7FF00BFFFF7A4FF00BFAB
:10334000002220211448FFF72FFFFFF79CFF00BF4A
:10335000FFF799FF601CC4B2082CD3DB00BF012229
:1033600040210D48FFF720FFFFF78DFF00BFFFF75B
:103370008AFF00BF012220210748FFF715FFFFF752
:1033800082FF00BF00BF002220210348FFF70CFF8F
:10339000FFF779FF00BF70BD0000024010B500BF0D
:1033A000012240211448FFF7FFFEFFF76CFF00BF2A
:1033B000FFF769FF00BF012220210F48FFF7F4FE4D
:1033C000FFF761FF00BFFFF75EFF00BF0022402153
:1033D0000948FFF7E9FEFFF756FF00BFFFF753FF6D
:1033E00000BF002220210448FFF7DEFEFFF74BFF5D
:1033F00000BFFFF748FF10BD0000024010B500BF3E
:10340000002240210F48FFF7CFFEFFF73CFF00BF2F
:10341000FFF739FF00BF012220210A48FFF7C4FE51
:10342000FFF731FF00BFFFF72EFF00BF0122402151
:103430000448FFF7B9FEFFF726FF00BFFFF723FFA1
:1034400010BD00000000024070B5002406E0002519
:1034500000E06D1CB5F57A7FFBD3641CB4F57A7F70
:10346000F5D3FFF71BFFAE2000F0D0F8D52000F019
:10347000CDF8802000F0CAF8A82000F0C7F83F205F
:1034800000F0C4F8D32000F0C1F8002000F0BEF82E
:10349000402000F0BBF8A12000F0B8F8C82000F0F0
:1034A000B5F8DA2000F0B2F8122000F0AFF8812071
:1034B00000F0ACF8CF2000F0A9F8D92000F0A6F871
:1034C000F12000F0A3F8DB2000F0A0F8302000F09D
:1034D0009DF8A42000F09AF8A62000F097F88D201F
:1034E00000F094F8142000F091F8AF2000F08EF86E
:1034F000FFF7B4FE70BD10B50246012000E0504356
:103500000B1EA1F10101FAD110BD70B505460C46A4
:1035100045F0B00000F07AF8102141EA141000F0F4
:1035200075F804F00F0000F071F870BD2DE9F0415E
:1035300005460E461746721ED206110E6A1E520628
:10354000100EFFF7E2FF002409E0A7F12001134A63
:1035500002EB0111085D00F069F8601CC4B2082C90
:10356000F3DB721ED206110E6A1E012303EB420228
:10357000D0B2FFF7CAFF00240BE0A7F12001074AF1
:1035800002EB011204F10801505C00F04FF8601CDE
:10359000C4B2082CF1DBBDE8F08100001EA80008D1
:1035A0002DE9F04780460E4617461D46002415E0DB
:1035B000281B411E0A20FFF79EFFB7FBF0F00A21EF
:1035C000B0FBF1F201FB120000F130093019C1B279
:1035D0004A464046FFF7AAFF601CC4B2AC42E7DB94
:1035E000BDE8F0872DE9F04107460E461546002458
:1035F00007E02A5D3019C1B23846FFF797FF601C1B
:10360000C4B2285D0028F4D1BDE8F08110B50446AD
:10361000FFF7C4FE7820FFF771FE0020FFF76EFE73
:103620002046FFF76BFEFFF7E9FE10BD10B504461C
:10363000FFF7B4FE7820FFF761FE4020FFF75EFE43
:103640002046FFF75BFEFFF7D9FE10BD2DE9FC41D8
:1036500004460D4616461F462348844204D10121E4
:10366000084600F04FF82EE02048844204D10121A2
:10367000022000F047F826E01D48844204D10121D1
:10368000042000F03FF81EE01A48844204D10121D2
:10369000082000F037F816E01748844204D10121D1
:1036A000102000F02FF80EE01448844204D10121CC
:1036B000202000F027F806E01148844203D10121C0
:1036C000402000F01FF800958DF8046000208DF870
:1036D00006008DF8077003208DF805006946204626
:1036E000FFF7E1FCBDE8FC8100000240000402405D
:1036F00000080240000C024000100240001402408A
:103700000018024029B1064A12680243044B1A60AD
:1037100004E0034A12688243014B1A6070470000BC
:103720003038024029B1064A12680243044B1A603D
:1037300004E0034A12688243014B1A60704700009C
:103740004038024029B1064A12680243044B1A600D
:1037500004E0034A12688243014B1A60704700007C
:103760002038024029B1064A12680243044B1A600D
:1037700004E0034A12688243014B1A60704700005C
:1037800024380240F0B50021002200240225002642
:103790000223324F3F6807F00C0121B1042905D004
:1037A000082937D105E02E4F076036E02D4F07601E
:1037B00033E02A4F3F1F3F68C7F38056274F3F1F14
:1037C0003F6807F03F036EB1264FB7FBF3F7DFF812
:1037D0008CC0ACF1040CDCF800C0CCF3881C07FBF7
:1037E0000CF40CE01E4FB7FBF3F7DFF870C0ACF140
:1037F000040CDCF800C0CCF3881C07FB0CF4174F5A
:103800003F1F3F68C7F301477F1C7D00B4FBF5F7FE
:10381000076002E0124F076000BF00BF0F4F3F6814
:1038200007F0F0010909104F7A5C0768D74047603C
:103830000A4F3F6807F4E051890A0B4F7A5C4768EA
:10384000D7408760054F3F6807F46041490B064F3A
:103850007A5C4768D740C760F0BD00000838024076
:103860000024F40000127A000000002070470000DD
:103870000CB50020019000903448006840F480307E
:103880003249086000BF3148006800F40030009001
:103890000198401C0190009818B90198B0F5A04F0C
:1038A000F1D12A48006800F4003010B101200090E6
:1038B00001E0002000900098012846D123484030C4
:1038C000006840F08050214940310860204800687D
:1038D00040F440401E4908601C48083000681B49FD
:1038E000083108600846006840F400400860084657
:1038F000006840F4A05008601648091F0860081FBF
:10390000006840F08070091F086000BF0F48006821
:1039100000F000700028F9D040F205700E490860F0
:103920000A480830006820F00300084908310860A0
:103930000846006840F00200086000BF03480830F5
:10394000006800F00C000828F8D10CBD00380240D7
:103950000070004008544007003C024010B5FCF7DE
:1039600049FD10BD70B50020002202230024022171
:10397000274D2D6805F00C0020B1042806D008283A
:1039800034D107E0234D244E356033E0234D224EE1
:1039900035602FE01E4D2D1F2D68C5F380541C4D42
:1039A0002D1F2D6805F03F0154B11C4DB5FBF1F5FD
:1039B000174E361F3668C6F3881605FB06F209E077
:1039C000144DB5FBF1F5124E361F3668C6F3881656
:1039D00005FB06F20E4D2D1F2D68C5F301456D1C2C
:1039E0006B00B2FBF3F50C4E356003E0094D0A4E57
:1039F000356000BF00BF064D2D68C5F30315084EA6
:103A0000705D054D2D68C540034E356070BD0000EA
:103A1000083802400024F400B400002000127A00AC
:103A2000B800002010B51548006840F47000134934
:103A300008601348006840F0010011490860002048
:103A40000F49083108600E4800680E4908400C49CB
:103A500008600D48091D0860081F006820F48020D8
:103A6000091F0860002006490C310860FFF700FFBD
:103A70004FF0006001498039086010BD88ED00E01A
:103A800000380240FFFFF6FE1030002410B5114B45
:103A90001B6803F001036BB90F4B1B6843F0807385
:103AA0000D4C236000230B4C636023461B6843F0DE
:103AB00001032360094B1B68094CB3FBF4F303FBC0
:103AC00000F2044B596800BF024B5B685B1A9342DB
:103AD000FAD310BD001000E0FCED00E0B4000020BF
:103AE00040420F0010B501210846FFF70BFE00F021
:103AF000C1F880210148FFF74CFB10BD00000240D7
:103B00002DE9FC4105460E464FF0000805B116B9F7
:103B10000120BDE8FC8100F0ADF880212F48FFF7BF
:103B200036FB44F62060FFF7B1FF00BFEFF31080D3
:103B3000074672B680212948FFF72BFB1E20FFF7AE
:103B4000A5FF00F081F86421002000F0A7F810B173
:103B50004FF0010837E06421012000F09FF810B118
:103B60004FF001082FE06421002000F097F810B119
:103B70004FF0010827E0002409E00DEB040000F0FD
:103B80002FF810B14FF001081DE0601CC4B2052CE5
:103B9000F3D39DF800009DF8011008449DF8021031
:103BA00008449DF803100844C0B29DF804108842F0
:103BB00002D04FF0010806E09DF8000030709DF83B
:103BC0000200287000BF07B962B600F053F88021E8
:103BD0000248FFF7DEFA40469BE700000000024083
:103BE00070B5044600250CB9012070BD002623E005
:103BF0006421002000F052F808B10120F5E76421AB
:103C0000012000F04BF808B10120EEE72820FFF773
:103C10003DFF6806050E80210A48FFF7AFFA01282C
:103C200001D145F001056421002000F037F808B10A
:103C30000120DAE7701CC6B2082ED9D32570002007
:103C4000D3E70000000002401CB580200090002057
:103C50008DF8040001208DF806008DF80700022081
:103C60008DF8050069460248FFF71DFA1CBD0000EB
:103C7000000002401CB58020009001208DF8040057
:103C80008DF806008DF8070002208DF805006946C2
:103C90000148FFF708FA1CBD0000024070B5054658
:103CA0000C4606E00CB9012070BD641E0120FFF730
:103CB000EDFE80210348FFF761FAA842F2D100200F
:103CC000F2E700000000024010B500F0B1FA10BDAC
:103CD00021B1828942F40052828104E082894DF64A
:103CE000FF731A408281704710B5044632488442FF
:103CF00008D101211020FFF735FD00211020FFF72A
:103D000031FD57E02D48844209D101214804FFF7D5
:103D100019FD00214FF40030FFF714FD4AE0284858
:103D2000844209D101218804FFF70CFD00214FF4E2
:103D30008020FFF707FD3DE02248844209D10121A0
:103D4000C804FFF7FFFC00214FF40020FFF7FAFC46
:103D500030E01D48844209D101210805FFF7F2FC3B
:103D600000214FF48010FFF7EDFC23E01748844258
:103D700008D101212020FFF7F5FC00212020FFF7CA
:103D8000F1FC17E01248844209D101218807FFF7AE
:103D9000D9FC00214FF08040FFF7D4FC0AE00D4829
:103DA000844207D101214005FFF7CCFC00216005CA
:103DB000FFF7C8FC10BD00000010014000440040A7
:103DC00000480040004C00400050004000140140FA
:103DD00000780040007C004002460020B1F5007FE2
:103DE00000D100BF13880B400BB1012000E0002080
:103DF000704770B50246002400230025002040F6DD
:103E00006A16B14200D100BFC1F3421501F01F0391
:103E1000012606FA03F3012D02D19689334006E00C
:103E2000022D02D1168A334001E0968A33400C12EB
:103E3000012606FA04F41688344013B10CB10120AF
:103E400000E0002070BDF0B50346002400260025E8
:103E5000002040F66A17B94200D100BF1846C1F3EE
:103E6000421401F01F06012707FA06F5012C01D1C3
:103E70000C3004E0022C01D1103000E014301AB1F3
:103E800007682F43076002E00768AF430760F0BD93
:103E90002DE9FF4705460E460024A14600BFA04677
:103EA000B08900B100BF2C8A24F44054F088044348
:103EB0002C82AC8941F20C608443B088318908437C
:103EC000718908430443AC81AC8A24F44074B089FE
:103ED0000443AC826846FFF755FC2048854202D077
:103EE0001F48854202D1DDF80C9001E0DDF8089012
:103EF000A88900F4004040B109EBC90000EB0910AB
:103F000031684900B0FBF1F707E009EBC90000EBAD
:103F1000091031688900B0FBF1F76420B7FBF0F0BD
:103F200004012009642101FB1078A88900F40040F5
:103F300040B1322000EBC800B0FBF1F000F0070008
:103F4000044308E0322000EB08106421B0FBF1F0DC
:103F500000F00F0004432C81BDE8FF8700100140F2
:103F60000014014001468888C0F308007047C1F37F
:103F70000802828070474FF4165101600021818051
:103F8000C18001810C21418100218181704700BFE6
:103F9000FEE70000004870479000002000B970471D
:103FA000084909780170084909784170074909787A
:103FB000817007490978C17006490978017100BF0D
:103FC000EDE70000540000205500002056000020BE
:103FD000570000205C00002010B503F093FF05F0AF
:103FE00065FE05F02DFA04F01DFD00201B49087048
:103FF0001B4908701B4908701B49087001201B49A8
:1040000008701B4800781B49087000201A49087086
:104010001A4908701A4908701A4908701A49087034
:104020001A4908701A4908701A4908701A49087024
:1040300005F0E4F905F0F2FB0520184908600020BE
:10404000174908606FF03B00164908601E201649AA
:10405000086050201549086010BD00005400002081
:104060005500002056000020570000205800002076
:1040700089000020590000205A0000205B00002029
:104080005C0000206100002062000020630000202E
:1040900064000020650000208800002070000020DF
:1040A000740000207C00002080000020840000209C
:1040B00001480078704700005D00002001200149A0
:1040C000087070475A0000200120014908707047AD
:1040D0005900002001200149087070475B00002052
:1040E0000120034908700020024908607047000061
:1040F000580000208C000020ADF5007D0024002534
:10410000FFF76AFF7FE002E0684604F083FD4FF4AA
:104110000071684604F0E6FF0028F5D13A480078BF
:1041200078B100203849087038490870384908705B
:10413000384908703849087003F0A0F808B105F054
:104140002DFA05F065F9B0B1002030490870334907
:10415000086003F0D1F958B900202F4908703048A1
:10416000007840B12F48007828B905F029FA02E01C
:104170000120274908702648007820B100202449F2
:10418000087003F023F92348007830B1002021495A
:104190000870012020490870002403F02DF802F077
:1041A0006BFF03F001F81C480078B0B11E4800789E
:1041B000022812D164B100F03DFE061B1B490968BC
:1041C0004FF47A7201FB02F004F084FC864204D3BF
:1041D00000F030FE044604F063FF13480078022824
:1041E0000ED145B100F026FE461B47F2305004F0D8
:1041F00071FC864204D300F01DFE054604F0E4FD88
:10420000012000F07FFB7EE75A00002058000020CC
:10421000590000205B0000205C0000208C00002082
:104220008900002088000020550000207000002038
:1042300010B540F225510A48FFF7DBFD30B10848C0
:10424000FFF790FEC4B2204605F022F90821044889
:10425000FFF7C2FD10B10248FFF784FE10BD000059
:1042600000480040034B1870034B1970034B1A7041
:10427000704700005E0000205F000020600000200A
:1042800003B401984100009850EAC12018BF0420EF
:104290004A0D18BF40F0010040F2FF72B2EB515FCF
:1042A00008BF40F00200012808BF052002B0704797
:1042B00000BFEFF3108100BF084672B6704700BF21
:1042C000EFF3108100BF084672B6704700BFEFF3EE
:1042D000108100BF084672B6704700BFEFF310812F
:1042E00000BF084672B6704700BFEFF3108100BFF1
:1042F000084672B67047000030B52DED048B81B0D2
:10430000B0EE408AF0EE608A6A4651EC180B01F07C
:10431000CBFB00989FED329B7E300090002821DC83
:1043200053EC192B51EC180B05F0FCFE1AD00021B0
:1043300040F608004FF00000044651EC180B05F061
:1043400003FE08EE100A40F6080004EA00014FF0F0
:104350000000B5EEC08AF1EE10FA04BF0220FDF7AE
:1043600001FF2DE00098FF2830DB002108464FF0C8
:10437000000000F4400553EC192B51EC180B06F02B
:10438000A1F88CBF002401240220FDF7EBFE9FED75
:10439000168A4DB1002C0CBF4FF400004FF4800082
:1043A000A84218BF9FED118A042108464FF0000073
:1043B000002C01BFB1EE480A01B0BDEC048B30BD4A
:1043C000B0EE480A01B0BDEC048B30BD51EC180BC7
:1043D00005F0BAFD01B000EE100ABDEC048B30BD53
:1043E00000000000000000000000807FFFFF7F7FD2
:1043F0002DED020B019820F0004001909DED000B87
:1044000002B070470000000030B540F2FF742DED9F
:10441000048BF0EE608A18EE901A85B0B0EE408AF8
:104420009FED2B9B05468DED008B34EA115147D053
:1044300053EC192B51EC180B05F074FE40D02A46B2
:1044400051EC180B06F09FF941EC180B18EE900A8E
:104450008DED008B34EA10501CD053EC192B51EC2D
:10446000180B05F05FFE2BD10220FDF77BFE00F05C
:1044700057F810EE901A18EE900A8DED020B8DEDA4
:10448000008B61F31E0003909DED020B05B0BDECA7
:10449000048B30BD0220FDF765FE00F031F810EE10
:1044A000901A18EE900A8DED020B8DED008B61F3E2
:1044B0001E0003909DED020B05B0BDEC048B30BDDA
:1044C00005B0B0EE480AF0EE680ABDEC048B30BDD2
:1044D000000000000000000000B583B09FED060B57
:1044E0000A4601468DED000B6846FDF78BFA9DEDFF
:1044F000000B03B000BD0000000000000000000041
:104500009FED050B10B553EC102B51EC100B05F083
:10451000DBFE41EC100B10BD00000000000000703D
:104520009FED050B10B553EC102B51EC100B05F063
:10453000CBFE41EC100B10BD00000000000000108D
:1045400010B5044691ED000BFFF7D6FE84ED000A8E
:1045500010BD80F31088704780F31088704780F397
:104560001088704710B5044690ED000B0846FFF721
:104570004BFF84ED000B10BD30380A2801D201201A
:10458000704700207047000010B500F03DF900F0C2
:1045900081FC00200C4908600C4908600C49086047
:1045A0000C4908600C4908600C4908600C49086017
:1045B0000C4908600C4908600C4908600C49086007
:1045C0000C49086010BD0000C8000020CC0000208D
:1045D000D0000020D4000020D8000020DC00002003
:1045E000E8000020EC000020F0000020F400002093
:1045F000E0000020E400002010B51048006810F131
:104600000F3F0CD04FF0F0300C49086000F01CF860
:10461000FFF7BAFF0A480068401C094908604FF0DC
:10462000F030064908600748006802F0FBFB0020F4
:1046300002490860FBF75AFE10BD00008C01002003
:104640009C010020F800002010B5FFF78BF91648F8
:104650001649086000BFEFF3088015490860154847
:1046600000686421B0FBF1F4601EB0F1807F00D3DC
:104670000FE0601E4FF0E02148610F214FF0FF3046
:10468000FEF7D8FD00204FF0E02188610720086187
:1046900000BF0F216FF00100FEF7CCFD0E214FF09F
:1046A000FF30FEF7C7FD10BD305F0020F80000208E
:1046B00078010020B40000202DE9FF4F83B00446AC
:1046C000DDE9119B109F00200290EF2249463846F9
:1046D000FCF703FBB4212046FCF707FB0498A0621B
:1046E000059860640698A064E760C4F81490C4F864
:1046F0002CB0C4F894B01498A0611498E061202004
:10470000C4F89C000197A9F10100019F3844019071
:10471000019820611398E0631398C4F8980003206F
:10472000206331496165A46530492046FBF742FEAC
:10473000FFF7BEFD06462E4820602E48006830B9BF
:104740002D480460C4F88840C4F88C400CE02A4826
:10475000D0F80080D8F88CA0C8F88C40CAF88840FF
:10476000C4F88CA0C4F8888022480068401C214905
:10477000086022480068401C2049086015980128FC
:104780001CD1EFF305801E49096840EA0101B1F12F
:10479000F03F07D31B4805682DB1E86B0290E86A2B
:1047A000E86300E0002500BF86F3108800BF2046C4
:1047B00000F014F9A5B10298E86311E0304680F3E7
:1047C000108800BFFFF774FD06460C480068401EC5
:1047D0000A490860304680F3108800BF00F0EAF80C
:1047E000002007B0BDE8F08FDD4D000879480008D3
:1047F0004452485488010020840100209C0100207C
:104800008C0100208001002010B500200F490860B5
:104810000F4908600F48002101600F480160202007
:104820000E49086080210E48FCF75FFA00200D4910
:1048300008600D4908600D4908600D4908600D4881
:10484000006840F080700B49086010BD7C010020BA
:104850008001002090010020940100209801002098
:104860001C35002084010020880100209C010020CC
:10487000A0010020A401002070B51F480468FFF7C4
:104880001EFD0546D4F8AC60284680F3108800BFB2
:1048900016B100212046B047D4E9111088471748C7
:1048A000006818B12046154909688847FFF707FDD9
:1048B0000546D4F8AC6001202063A0630020E064CA
:1048C0000F480068401C0E490860284680F3108895
:1048D00000BF00BFEFF3148100BF084620F00400C2
:1048E000014681F3148800BF16B101212046B0476C
:1048F000204600F053F970BD7C010020A00100208B
:104900009C0100202DE9F041064600BF00BFEFF3F7
:10491000108100BF084672B600BF074621480468F0
:10492000002C04D13846FFF714FE132536E0EFF3D0
:1049300005801D49096840EA010121B13846FFF7A9
:1049400008FE13252AE01948844204D13846FFF7AF
:1049500000FE132522E026B93846FFF7FAFD0025B0
:104960001CE01348006820B13846FFF7F2FD13251C
:1049700014E0042020630120A0630020C4F8840018
:10498000E6640B480068401C094908603846FFF798
:10499000E0FD204600F002F9D4F884502846BDE836
:1049A000F08100007C0100208C0100201C360020DA
:1049B0009C01002070B5064806683EB905480468A9
:1049C00005480568AC4201D000F0B2F870BD0000A7
:1049D0009C0100207C010020800100202DE9F84F7F
:1049E000044600BF00BFEFF3108100BF084672B657
:1049F00000BF0646606E20B104F14C0000F0EEFAF4
:104A000001E00020E06443480068401E414908601E
:104A1000A06B002857D1206B002864D0606B002861
:104A20004CD12063E56A3C4850F82580B8F1000F6E
:104A300039D140F8254024626462012000FA05FA69
:104A40003648006840EA0A00344908603448006883
:104A5000854248D232480560324807680FB9046081
:104A600041E0F86BA8423ED9F96AF86B88420AD057
:104A700097F82C10012000FA01FA2B48006840EA50
:104A80000A00294908602748046000BF86F310889F
:104A900000BF2048D0F80090B9F1000F01D100F01C
:104AA00059F8BDE8F88FD8F824B0CBF82040C8F802
:104AB0002440C4F824B0C4F8208014E000206063CF
:104AC000032020630FE0206B01280CD0206B02280C
:104AD00009D0606B18B90020A063206303E00020B8
:104AE00060630320206311480068009000BF86F3D4
:104AF000108800BF0B4900980968884207D0054814
:104B0000D0F80090B9F1000F01D100F023F800BFF8
:104B1000C7E700009C0100201C3500209001002008
:104B20009801002080010020940100207C010020D9
:104B30004FF08051064A1160EFF3058139B9EFF368
:104B4000108101F0010072B662B600B172B6704712
:104B500004ED00E04FF08051064A1160EFF305814B
:104B600039B9EFF3108101F0010072B662B600B1FD
:104B700072B6704704ED00E04FF08051064A1160B4
:104B8000EFF3058139B9EFF3108101F0010072B63E
:104B900062B600B172B6704704ED00E02DE9FE4F39
:104BA0000446684800680190FFF790FB0290019866
:104BB00084420DD1E06C0090009830B10098401C08
:104BC00018B104F14C0000F0D9F95F49E0690860C0
:104BD0005E480068401E5D490860A06B01287CD1DA
:104BE0000020A063E56AD4F82080A0451AD0D4F84C
:104BF00024B0C8F824B0CBF82080554850F82500E0
:104C0000A04246D1524840F825805248006800280A
:104C10003FD0012000FA05F64E480068B0434D49E8
:104C2000086036E000204A4941F82500012000FADA
:104C300005F649480068B0434749086045480068A0
:104C400038B1012000FA05F642480068B0434149F6
:104C500008604FF0000A4048D0F80090B9F1000F0A
:104C60000FD120203D49086000203D49086002988E
:104C7000FFF772FC354807680FB9FFF77DFFBDE805
:104C8000FE8F99FAA9F0B0FA80F60AEB06003349D4
:104C9000086033480068844244D12D482F49096890
:104CA00050F821002E4908602A48006888B3274838
:104CB0000068401C254908600298FFF74DFCFFF78B
:104CC00005FB029021480068401E204908604FF013
:104CD000000A2048D0F8009000E023E099FAA9F0FB
:104CE000B0FA80F60AEB0605194850F82500C06BAB
:104CF0001A49096888420CD8154850F82500184907
:104D00000860012000FA05F612480068B043114916
:104D100008600298FFF720FC0C4807680FB9FFF7FE
:104D20002BFFACE70298FFF717FC0D4901980968C3
:104D3000884204D0054807680FB9FFF71DFF00BF80
:104D40009DE700007C010020D80100209C0100208C
:104D50001C350020940100209001002098010020C3
:104D60008001002010B5174A106800BF00BFEFF3A4
:104D7000108300BF1A4672B600BF11460022124BC4
:104D80001A60C8B1026BBAB9C26982610F4B8269FD
:104D90001A60026A82420FD0C36BC26A9A420BD178
:104DA0000B4CC36A026A44F823202246094B1B6855
:104DB00052F82320084B1A6000BF81F3108800BF0F
:104DC00010BD00007C010020AC010020D8010020B3
:104DD0001C35002098010020800100202DE9F041C1
:104DE0000646354600BF00BFEFF3108100BF0846FE
:104DF00072B600BF0446286B04280CD10C4800682A
:104E0000401C0B49086000BF84F3108800BF28468F
:104E1000FFF7E4FD0AE0AF6ED5F8B08000BF84F381
:104E2000108800BF17B141462846B847BDE8F08159
:104E30009C01002010B500BF00BFEFF3108300BF3E
:104E4000184672B600BF014603480268084680F360
:104E5000108800BF104610BDA801002010B500BF8B
:104E600000BFEFF3108100BF084672B600BF0446D2
:104E700006480068401C05490860204680F31088F9
:104E800000BF0348FFF7AAFD10BD00009C010020F1
:104E90001C36002010B586B0002021490860214949
:104EA0000860214908602149086021490860802183
:104EB0002048FBF71AFF1F481F4908601F49086078
:104EC0007C301F49086008460068001D08601D48C6
:104ED0001D4908604FF480601C49086000201C498F
:104EE000086000BF00201A4A1268194B1B68CDE900
:104EF0000320029305901548006813490968154B73
:104F0000154ACDE9001015A11948FFF7D5FB044655
:104F1000002CE7D1174908601749086006B010BD9A
:104F2000A8010020D8010020AC010020BC01002015
:104F3000C80100209C350020B0010020B8010020ED
:104F4000B4010020D0360020CC010020D001002088
:104F5000D40100204D4954410D5000085379737419
:104F6000656D2054696D65722054687265616400D6
:104F70001C360020C0010020C4010020F0B50368E9
:104F80002BB35F1C1FB387690FBB202B01D91F25D3
:104F900000E05D1E0E4F3F6807EB85010D4F3F6837
:104FA000B94207D30B4F3F68CF1BBE100A4F3F6873
:104FB00007EB86010F681FB900614061086005E0DA
:104FC0000A68546920615061026144618161F0BDE9
:104FD000B8010020B4010020B001002010B58169A3
:104FE00091B10269904205D10C6884420AD1002433
:104FF0000C6007E0436953611A610C68844201D177
:1050000091610A600024846110BD00002DE9FC5FFD
:1050100080464FF0000B4A4880457DD18DE0FFF778
:105020005CF982464748006800680190019810B119
:1050300001A8019988610020424909680860414837
:105040000068001D3F490860084600683E4909683D
:10505000884203D13D4800683A49086000203C4935
:1050600008605046FFF77BFAFFF737F9824648E0C1
:10507000019C0198056900200090AC4201D101908B
:1050800005E067696F613D6101A8A861019520682D
:10509000202809D92068203820604FF00009C4F882
:1050A00018D0246100940EE0D4F80890D4F80CB025
:1050B00060682060206820B1C4F818D02461009492
:1050C00001E00020A061234804605046FFF747FA42
:1050D000B9F1000F01D05846C847FFF7FEF88246E5
:1050E00000201C4908600098A04204D10020A06163
:1050F0002046FFF743FF5046FFF731FAFFF7EDF880
:10510000824601980028B3D11148006890B9124E28
:1051100003203063012000E010E0B0630F48006816
:10512000401C0E4908605046FFF719FA3046FFF759
:1051300035FD02E05046FFF712FA70E7BDE8FC9F2C
:105140004D495441B8010020B4010020B0010020B5
:10515000BC010020C80100201C3600209C0100205A
:105160002DE9FF4F8BB00746DDE9199A189E002004
:105170000A9017B90E200A9096E01E98B42802D023
:105180000E200A9090E0FFF7AFF8054650480068FF
:10519000401C4F490860284680F3108800BF00205B
:1051A00009904C4804680896A9F10100089E00EB9C
:1051B0000608CDF82080DDF820804FF0000B1DE0C0
:1051C000A74201D1012009900998012800D119E0D6
:1051D000E068B04205D82069B04202D9002601201B
:1051E0000990E068404505D82069404502D900266D
:1051F00001200990D4F888400BF1010B3648006873
:105200008345DDD300BFFFF76FF8054630480068DF
:10521000401E2F490860284680F3108800BFFFF722
:10522000C9FBA74202D10E200A903DE016B9032027
:105230000A9039E00D9810B903200A9034E0B9F1D2
:10524000C80F02D205200A902EE0BAF1200F02D337
:105250000F200A9028E01B98504502D918200A9088
:1052600022E01D98012802D910200A901CE01B485A
:10527000006807901A490798884202D14FF013003E
:105280000A90EFF305801749096840EA01010029F7
:105290000AD0EFF305801349096840EA0101B1F132
:1052A000F03F01D213200A900A9868B9DDE91B216A
:1052B0001D988DE84006CDE90321059038460CA9DC
:1052C0000EC9FFF7F9F90A900A980FB0BDE8F08F00
:1052D0009C01002084010020880100207C01002026
:1052E0001C3600208C01002070B505460C460026B7
:1052F00014B10DB1A54201D1002070BDAE6826B930
:10530000AC6064600020206007E0706828B121462E
:10531000706801F083FDA86844600120EDE72DE985
:10532000F04705460E4614461F46DDF820904FF024
:105330000008C2461DB116B10CB1A54202D1002031
:10534000BDE8F087B9F1000F07D0304600F0E8FA69
:105350008046E06840F4007A0CE03946304600F0C0
:105360009FFA8046B8F1000F01D10020E8E7E0681D
:1053700020F4007AA08900F4007020B9206A10B1EE
:10538000206A79688847C4F82080C4F80CA02146B8
:105390002846FFF7A9FFD3E7014609B1086808B915
:1053A0000020704719B1D1E90120904201D308468D
:1053B000F7E702E08868401C886041B1D1E901202C
:1053C000904204D28A680868805C2028F2DDD1E926
:1053D0000120904202D18868401E88600846E0E7BC
:1053E000F8B505460E461446204600F083F80746F9
:1053F0000020074B3A46314600902846FFF78FFFC2
:1054000008B13846F8BD384600F0F4F80020F9E756
:1054100018000020F8B504460D4600F07BF806465B
:105420000020074B3246294600902046FFF777FFC1
:1054300008B13046F8BD304600F0DCF80020F9E74E
:105440001800002070B52DED028B82B004460D4689
:10545000B0EE408AF0EE608AB0EE480AF0EE680ADC
:1054600000F064F806460020084B324629460090BA
:105470002046FFF754FF20B1304602B0BDEC028B4E
:1054800070BD304600F0B6F80020F6E718000020A6
:10549000F8B504460D4600F087F806460020074B95
:1054A0003246294600902046FFF739FF08B13046C2
:1054B000F8BD304600F09EF80020F9E71800002003
:1054C000F8B505460E461446204600F079F8074622
:1054D0000020074B3A46314600902846FFF71FFF51
:1054E00008B13846F8BD384600F084F80020F9E7E6
:1054F0001800002070B50546054800F0ECF8044699
:1055000024B10DB1022000E00120E060204670BD12
:105510001800002010B5044800F0DDF804460CB176
:105520000420E060204610BD1800002010B52DEDCD
:10553000028BB0EE408AF0EE608A164800F0CBF89D
:10554000044614B30820E06084ED068B9FED120B37
:1055500053EC102B51EC180B04F0B4FF03D86FF090
:105560000040606111E09FED0E0B53EC102B51ECED
:10557000180B04F06DFE03D84FF00040606104E0AA
:1055800051EC180B04F00AFE60612046BDEC028B62
:1055900010BD0000180000200000C0FFFFFFDF4129
:1055A000000000000000E0C110B5044800F093F8CE
:1055B00004460CB14020E060204610BD18000020D9
:1055C00070B505460A4800F086F804466CB1102014
:1055D000E0600749284600F063F92061206920B99E
:1055E000204600F007F8002070BD2046FCE70000D0
:1055F0001800002070B50446002526E02568A08923
:1056000000F4807020B9A06810B1A068FFF7F2FF25
:10561000A08900F4807038B9206928B10C4A20694B
:105620005168884700202061A08900F4007038B9D3
:10563000206A28B1064A206A516888470020206203
:1056400003484168204688472C46002CD6D170BDBF
:105650001800002070B504460D4600222946204659
:1056600000F06AFA70BD014609B900207047087B56
:1056700000F0030008B10120F8E70020F6E701463A
:1056800009B900207047087B082801D10120F9E7FB
:105690000020F7E7014609B900207047087B402841
:1056A00001D10120F9E70020F7E7014609B9002000
:1056B0007047087B102801D10120F9E70020F7E7A7
:1056C000014609B900207047087B022801D101205A
:1056D000F9E70020F7E770B50446282021688847DD
:1056E00005461DB128212846FBF7FFFA284670BD64
:1056F00010B5044600221146204600F06BF810BD9C
:105700002DE9F0478AB004460E46154698461C21FE
:1057100003A8FBF7EAFA002700202C49086048603C
:1057200004B106B932E00394049600200590284A9B
:1057300007CA07AB07C32648FFF7CDFF074607B9DF
:1057400024E003A801F04CFB8246FFF725FE8146CA
:105750004946384600F00AFF00B917E0B8F1000FDB
:105760000BD003A8FFF718FEDDE90410884203D22E
:1057700005990398405C00B108E01DB105990398B4
:105780000844286038460AB0BDE8F08717B13846AB
:10579000FFF730FFC4B1019400200290DDE904104E
:1057A000884202D20598029004E0049810B104984F
:1057B000401E02901DB1DDE9010108442860034844
:1057C000DDE9011206C000BF0020DCE71000002068
:1057D000180000202DE9F04104460D46164614B984
:1057E0000020BDE8F0812046FBF754F9471C334602
:1057F0002A4639462046FFF783FFF2E710B50446F4
:10580000024A0021204600F04FFF10BD1800002082
:1058100070B504460D4616460023324629462046FA
:1058200001F0AEFA70BD70B506460D4614461EB1C5
:10583000B06808B104B10DB9002070BDAC4201D10F
:105840000120FAE72868206068686060206808B175
:1058500020684460B068A84207D1B0684068B16869
:10586000884200D16460B46007E0606808B1606895
:105870000460206808B9B06844600020286068604F
:105880002846FFF7B7FE0120D7E7000010B5044611
:105890000248416820468847002410BD18000020B7
:1058A0002DE9F04104460D460026002714B90020DA
:1058B000BDE8F0812046FBF7EDF8461C304629682C
:1058C000884707460FB90020F2E73246214638469E
:1058D000FBF74AF93846EBE770B504460D4604B1CC
:1058E0000DB9012070BDAC4201D10020FAE705E0FE
:1058F000207808B90020F5E7641C6D1C2078FAF7C1
:1059000087FE06462878FAF783FE8642F0D0207894
:10591000FAF77EFE06462878FAF77AFE301AE1E7B3
:105920007047000010B52DED0C8BB0EE409AF0EEF4
:10593000609AB0EE418AF0EE618AB0EE480AF0EE6D
:10594000680AFEF755FDB0EE40BAF0EE60BAB0EE70
:10595000490AF0EE690AFEF74BFDB0EE40CAF0EEE0
:1059600060CA53EC1B2B51EC1C0B04F0ABFD06D2B0
:10597000B0EE490AF0EE690AFEF73AFD05E0B0EE36
:10598000480AF0EE680AFEF733FDB0EE40AAF0EEEA
:1059900060AA9FED140B53EC102B51EC1A0B04F082
:1059A00093FC41EC1B0B53EC182B51EC190B04F03E
:1059B000BFFD41EC1D0BB0EE4D0AF0EE6D0AFEF797
:1059C00017FDB0EE40CAF0EE60CA53EC1B2B51EC51
:1059D0001C0B04F03DFC03D80120BDEC0C8B10BD6A
:1059E0000020FAE7000000000000B03C2DE9F04183
:1059F00004460D46002600270CB1206810B900208F
:105A0000BDE8F081606828B1D4E90110884201D373
:105A10000020F5E7B5F1004F01D30020F0E7A068C2
:105A2000401C05446068A84203D3A168206808446C
:105A3000E6E7206908B10020E2E7B5F1804F07D31F
:105A4000B5F1004F02D26FF0004702E00020D7E727
:105A50006F00206A60B13946226A20689047064686
:105A6000DEB9E16920688847002060602060C7E7F0
:105A70003846A1698847064636B9E16920688847F3
:105A8000002060602060BBE7A068421C30462168AF
:105A9000FBF76AF8E1692068884767602660A068BC
:105AA0003044ADE70000000010B582B01446CDE9E7
:105AB00000010023009A2360194B21F00040984216
:105AC0002ADA024328D0B0F5801FA8BF226810DA76
:105AD0009FED150B53EC102B9DED000B51EC100BB3
